{
  "contractName": "ERC20",
  "abi": [
    {
      "inputs": [
        {
          "internalType": "string",
          "name": "name_",
          "type": "string"
        },
        {
          "internalType": "string",
          "name": "symbol_",
          "type": "string"
        }
      ],
      "stateMutability": "nonpayable",
      "type": "constructor"
    },
    {
      "anonymous": false,
      "inputs": [
        {
          "indexed": true,
          "internalType": "address",
          "name": "owner",
          "type": "address"
        },
        {
          "indexed": true,
          "internalType": "address",
          "name": "spender",
          "type": "address"
        },
        {
          "indexed": false,
          "internalType": "uint256",
          "name": "value",
          "type": "uint256"
        }
      ],
      "name": "Approval",
      "type": "event"
    },
    {
      "anonymous": false,
      "inputs": [
        {
          "indexed": true,
          "internalType": "address",
          "name": "from",
          "type": "address"
        },
        {
          "indexed": true,
          "internalType": "address",
          "name": "to",
          "type": "address"
        },
        {
          "indexed": false,
          "internalType": "uint256",
          "name": "value",
          "type": "uint256"
        }
      ],
      "name": "Transfer",
      "type": "event"
    },
    {
      "inputs": [],
      "name": "name",
      "outputs": [
        {
          "internalType": "string",
          "name": "",
          "type": "string"
        }
      ],
      "stateMutability": "view",
      "type": "function"
    },
    {
      "inputs": [],
      "name": "symbol",
      "outputs": [
        {
          "internalType": "string",
          "name": "",
          "type": "string"
        }
      ],
      "stateMutability": "view",
      "type": "function"
    },
    {
      "inputs": [],
      "name": "decimals",
      "outputs": [
        {
          "internalType": "uint8",
          "name": "",
          "type": "uint8"
        }
      ],
      "stateMutability": "view",
      "type": "function"
    },
    {
      "inputs": [],
      "name": "totalSupply",
      "outputs": [
        {
          "internalType": "uint256",
          "name": "",
          "type": "uint256"
        }
      ],
      "stateMutability": "view",
      "type": "function"
    },
    {
      "inputs": [
        {
          "internalType": "address",
          "name": "account",
          "type": "address"
        }
      ],
      "name": "balanceOf",
      "outputs": [
        {
          "internalType": "uint256",
          "name": "",
          "type": "uint256"
        }
      ],
      "stateMutability": "view",
      "type": "function"
    },
    {
      "inputs": [
        {
          "internalType": "address",
          "name": "to",
          "type": "address"
        },
        {
          "internalType": "uint256",
          "name": "amount",
          "type": "uint256"
        }
      ],
      "name": "transfer",
      "outputs": [
        {
          "internalType": "bool",
          "name": "",
          "type": "bool"
        }
      ],
      "stateMutability": "nonpayable",
      "type": "function"
    },
    {
      "inputs": [
        {
          "internalType": "address",
          "name": "owner",
          "type": "address"
        },
        {
          "internalType": "address",
          "name": "spender",
          "type": "address"
        }
      ],
      "name": "allowance",
      "outputs": [
        {
          "internalType": "uint256",
          "name": "",
          "type": "uint256"
        }
      ],
      "stateMutability": "view",
      "type": "function"
    },
    {
      "inputs": [
        {
          "internalType": "address",
          "name": "spender",
          "type": "address"
        },
        {
          "internalType": "uint256",
          "name": "amount",
          "type": "uint256"
        }
      ],
      "name": "approve",
      "outputs": [
        {
          "internalType": "bool",
          "name": "",
          "type": "bool"
        }
      ],
      "stateMutability": "nonpayable",
      "type": "function"
    },
    {
      "inputs": [
        {
          "internalType": "address",
          "name": "from",
          "type": "address"
        },
        {
          "internalType": "address",
          "name": "to",
          "type": "address"
        },
        {
          "internalType": "uint256",
          "name": "amount",
          "type": "uint256"
        }
      ],
      "name": "transferFrom",
      "outputs": [
        {
          "internalType": "bool",
          "name": "",
          "type": "bool"
        }
      ],
      "stateMutability": "nonpayable",
      "type": "function"
    },
    {
      "inputs": [
        {
          "internalType": "address",
          "name": "account",
          "type": "address"
        },
        {
          "internalType": "uint256",
          "name": "amount",
          "type": "uint256"
        }
      ],
      "name": "increaseTotalSupply",
      "outputs": [],
      "stateMutability": "nonpayable",
      "type": "function"
    }
  ],
  "bytecode": "0x60806040523480156200001157600080fd5b506040516200160f3803806200160f8339818101604052810190620000379190620002be565b81600490805190602001906200004f92919062000071565b5080600390805190602001906200006892919062000071565b505050620003a7565b8280546200007f9062000372565b90600052602060002090601f016020900481019282620000a35760008555620000ef565b82601f10620000be57805160ff1916838001178555620000ef565b82800160010185558215620000ef579182015b82811115620000ee578251825591602001919060010190620000d1565b5b509050620000fe919062000102565b5090565b5b808211156200011d57600081600090555060010162000103565b5090565b6000604051905090565b600080fd5b600080fd5b600080fd5b600080fd5b6000601f19601f8301169050919050565b7f4e487b7100000000000000000000000000000000000000000000000000000000600052604160045260246000fd5b6200018a826200013f565b810181811067ffffffffffffffff82111715620001ac57620001ab62000150565b5b80604052505050565b6000620001c162000121565b9050620001cf82826200017f565b919050565b600067ffffffffffffffff821115620001f257620001f162000150565b5b620001fd826200013f565b9050602081019050919050565b60005b838110156200022a5780820151818401526020810190506200020d565b838111156200023a576000848401525b50505050565b6000620002576200025184620001d4565b620001b5565b9050828152602081018484840111156200027657620002756200013a565b5b620002838482856200020a565b509392505050565b600082601f830112620002a357620002a262000135565b5b8151620002b584826020860162000240565b91505092915050565b60008060408385031215620002d857620002d76200012b565b5b600083015167ffffffffffffffff811115620002f957620002f862000130565b5b62000307858286016200028b565b925050602083015167ffffffffffffffff8111156200032b576200032a62000130565b5b62000339858286016200028b565b9150509250929050565b7f4e487b7100000000000000000000000000000000000000000000000000000000600052602260045260246000fd5b600060028204905060018216806200038b57607f821691505b602082108103620003a157620003a062000343565b5b50919050565b61125880620003b76000396000f3fe608060405234801561001057600080fd5b506004361061009e5760003560e01c806370a082311161006657806370a082311461015d57806395d89b411461018d578063a9059cbb146101ab578063b2aa9f0f146101db578063dd62ed3e146101f75761009e565b806306fdde03146100a3578063095ea7b3146100c157806318160ddd146100f157806323b872dd1461010f578063313ce5671461013f575b600080fd5b6100ab610227565b6040516100b89190610b39565b60405180910390f35b6100db60048036038101906100d69190610bf4565b6102b9565b6040516100e89190610c4f565b60405180910390f35b6100f96102d5565b6040516101069190610c79565b60405180910390f35b61012960048036038101906101249190610c94565b6102df565b6040516101369190610c4f565b60405180910390f35b610147610307565b6040516101549190610d03565b60405180910390f35b61017760048036038101906101729190610d1e565b610310565b6040516101849190610c79565b60405180910390f35b610195610358565b6040516101a29190610b39565b60405180910390f35b6101c560048036038101906101c09190610bf4565b6103ea565b6040516101d29190610c4f565b60405180910390f35b6101f560048036038101906101f09190610bf4565b610406565b005b610211600480360381019061020c9190610d4b565b610414565b60405161021e9190610c79565b60405180910390f35b60606004805461023690610dba565b80601f016020809104026020016040519081016040528092919081815260200182805461026290610dba565b80156102af5780601f10610284576101008083540402835291602001916102af565b820191906000526020600020905b81548152906001019060200180831161029257829003601f168201915b5050505050905090565b6000803390506102ca81858561049b565b600191505092915050565b6000600254905090565b6000803390506102f0858285610664565b6102fb8585856106f0565b60019150509392505050565b60006012905090565b60008060008373ffffffffffffffffffffffffffffffffffffffff1673ffffffffffffffffffffffffffffffffffffffff168152602001908152602001600020549050919050565b60606003805461036790610dba565b80601f016020809104026020016040519081016040528092919081815260200182805461039390610dba565b80156103e05780601f106103b5576101008083540402835291602001916103e0565b820191906000526020600020905b8154815290600101906020018083116103c357829003601f168201915b5050505050905090565b6000803390506103fb8185856106f0565b600191505092915050565b6104108282610959565b5050565b6000600160008473ffffffffffffffffffffffffffffffffffffffff1673ffffffffffffffffffffffffffffffffffffffff16815260200190815260200160002060008373ffffffffffffffffffffffffffffffffffffffff1673ffffffffffffffffffffffffffffffffffffffff16815260200190815260200160002054905092915050565b600073ffffffffffffffffffffffffffffffffffffffff168373ffffffffffffffffffffffffffffffffffffffff160361050a576040517f08c379a000000000000000000000000000000000000000000000000000000000815260040161050190610e5d565b60405180910390fd5b600073ffffffffffffffffffffffffffffffffffffffff168273ffffffffffffffffffffffffffffffffffffffff1603610579576040517f08c379a000000000000000000000000000000000000000000000000000000000815260040161057090610eef565b60405180910390fd5b80600160008573ffffffffffffffffffffffffffffffffffffffff1673ffffffffffffffffffffffffffffffffffffffff16815260200190815260200160002060008473ffffffffffffffffffffffffffffffffffffffff1673ffffffffffffffffffffffffffffffffffffffff168152602001908152602001600020819055508173ffffffffffffffffffffffffffffffffffffffff168373ffffffffffffffffffffffffffffffffffffffff167f8c5be1e5ebec7d5bd14f71427d1e84f3dd0314c0f7b2291e5b200ac8c7c3b925836040516106579190610c79565b60405180910390a3505050565b60006106708484610414565b90507fffffffffffffffffffffffffffffffffffffffffffffffffffffffffffffffff81146106ea57818110156106dc576040517f08c379a00000000000000000000000000000000000000000000000000000000081526004016106d390610f5b565b60405180910390fd5b6106e9848484840361049b565b5b50505050565b600073ffffffffffffffffffffffffffffffffffffffff168373ffffffffffffffffffffffffffffffffffffffff160361075f576040517f08c379a000000000000000000000000000000000000000000000000000000000815260040161075690610fed565b60405180910390fd5b600073ffffffffffffffffffffffffffffffffffffffff168273ffffffffffffffffffffffffffffffffffffffff16036107ce576040517f08c379a00000000000000000000000000000000000000000000000000000000081526004016107c59061107f565b60405180910390fd5b60008060008573ffffffffffffffffffffffffffffffffffffffff1673ffffffffffffffffffffffffffffffffffffffff16815260200190815260200160002054905081811015610854576040517f08c379a000000000000000000000000000000000000000000000000000000000815260040161084b90611111565b60405180910390fd5b8181036000808673ffffffffffffffffffffffffffffffffffffffff1673ffffffffffffffffffffffffffffffffffffffff16815260200190815260200160002081905550816000808573ffffffffffffffffffffffffffffffffffffffff1673ffffffffffffffffffffffffffffffffffffffff16815260200190815260200160002060008282546108e79190611160565b925050819055508273ffffffffffffffffffffffffffffffffffffffff168473ffffffffffffffffffffffffffffffffffffffff167fddf252ad1be2c89b69c2b068fc378daa952ba7f163c4a11628f55a4df523b3ef8460405161094b9190610c79565b60405180910390a350505050565b600073ffffffffffffffffffffffffffffffffffffffff168273ffffffffffffffffffffffffffffffffffffffff16036109c8576040517f08c379a00000000000000000000000000000000000000000000000000000000081526004016109bf90611202565b60405180910390fd5b80600260008282546109da9190611160565b92505081905550806000808473ffffffffffffffffffffffffffffffffffffffff1673ffffffffffffffffffffffffffffffffffffffff1681526020019081526020016000206000828254610a2f9190611160565b925050819055508173ffffffffffffffffffffffffffffffffffffffff16600073ffffffffffffffffffffffffffffffffffffffff167fddf252ad1be2c89b69c2b068fc378daa952ba7f163c4a11628f55a4df523b3ef83604051610a949190610c79565b60405180910390a35050565b600081519050919050565b600082825260208201905092915050565b60005b83811015610ada578082015181840152602081019050610abf565b83811115610ae9576000848401525b50505050565b6000601f19601f8301169050919050565b6000610b0b82610aa0565b610b158185610aab565b9350610b25818560208601610abc565b610b2e81610aef565b840191505092915050565b60006020820190508181036000830152610b538184610b00565b905092915050565b600080fd5b600073ffffffffffffffffffffffffffffffffffffffff82169050919050565b6000610b8b82610b60565b9050919050565b610b9b81610b80565b8114610ba657600080fd5b50565b600081359050610bb881610b92565b92915050565b6000819050919050565b610bd181610bbe565b8114610bdc57600080fd5b50565b600081359050610bee81610bc8565b92915050565b60008060408385031215610c0b57610c0a610b5b565b5b6000610c1985828601610ba9565b9250506020610c2a85828601610bdf565b9150509250929050565b60008115159050919050565b610c4981610c34565b82525050565b6000602082019050610c646000830184610c40565b92915050565b610c7381610bbe565b82525050565b6000602082019050610c8e6000830184610c6a565b92915050565b600080600060608486031215610cad57610cac610b5b565b5b6000610cbb86828701610ba9565b9350506020610ccc86828701610ba9565b9250506040610cdd86828701610bdf565b9150509250925092565b600060ff82169050919050565b610cfd81610ce7565b82525050565b6000602082019050610d186000830184610cf4565b92915050565b600060208284031215610d3457610d33610b5b565b5b6000610d4284828501610ba9565b91505092915050565b60008060408385031215610d6257610d61610b5b565b5b6000610d7085828601610ba9565b9250506020610d8185828601610ba9565b9150509250929050565b7f4e487b7100000000000000000000000000000000000000000000000000000000600052602260045260246000fd5b60006002820490506001821680610dd257607f821691505b602082108103610de557610de4610d8b565b5b50919050565b7f45524332303a20617070726f76652066726f6d20746865207a65726f2061646460008201527f726573732e000000000000000000000000000000000000000000000000000000602082015250565b6000610e47602583610aab565b9150610e5282610deb565b604082019050919050565b60006020820190508181036000830152610e7681610e3a565b9050919050565b7f45524332303a20617070726f766520746f20746865207a65726f20616464726560008201527f73732e0000000000000000000000000000000000000000000000000000000000602082015250565b6000610ed9602383610aab565b9150610ee482610e7d565b604082019050919050565b60006020820190508181036000830152610f0881610ecc565b9050919050565b7f45524332303a20696e737566696369656e7420616c6c6f77616e63652e200000600082015250565b6000610f45601e83610aab565b9150610f5082610f0f565b602082019050919050565b60006020820190508181036000830152610f7481610f38565b9050919050565b7f45524332303a207472616e736665722066726f6d20746865207a65726f20616460008201527f64726573732e0000000000000000000000000000000000000000000000000000602082015250565b6000610fd7602683610aab565b9150610fe282610f7b565b604082019050919050565b6000602082019050818103600083015261100681610fca565b9050919050565b7f45524332303a207472616e7366657220746f20746865207a65726f206164647260008201527f6573732e00000000000000000000000000000000000000000000000000000000602082015250565b6000611069602483610aab565b91506110748261100d565b604082019050919050565b600060208201905081810360008301526110988161105c565b9050919050565b7f45524332303a207472616e66657220616d6f756e74206578636565647320626160008201527f6c616e63652e0000000000000000000000000000000000000000000000000000602082015250565b60006110fb602683610aab565b91506111068261109f565b604082019050919050565b6000602082019050818103600083015261112a816110ee565b9050919050565b7f4e487b7100000000000000000000000000000000000000000000000000000000600052601160045260246000fd5b600061116b82610bbe565b915061117683610bbe565b9250827fffffffffffffffffffffffffffffffffffffffffffffffffffffffffffffffff038211156111ab576111aa611131565b5b828201905092915050565b7f45524332303a206d696e7420746f20746865207a65726f20616464726573732e600082015250565b60006111ec602083610aab565b91506111f7826111b6565b602082019050919050565b6000602082019050818103600083015261121b816111df565b905091905056fea264697066735822122055c845788c2145e499eef647c1e605304816c3e2931af172647654839f8c1da464736f6c634300080e0033",
  "immutableReferences": {},
  "source": "// SPDX-License-Identifier: GPL-3.0\r\npragma solidity ^0.8.0;\r\n\r\nimport \"./IERC20.sol\";\r\nimport \"./IERC20Metadata.sol\";\r\n\r\ncontract ERC20 is IERC20, IERC20Metadata{\r\n\r\n    mapping(address => uint256) private _balances;\r\n    mapping(address => mapping(address => uint256)) private _allowances;\r\n\r\n    uint256 private _totalSupply;\r\n\r\n    string private _symbol;\r\n    string private _name;\r\n\r\n    constructor(string memory name_, string memory symbol_) {\r\n        _name = name_;\r\n        _symbol = symbol_;\r\n    }\r\n\r\n    function name() public view override returns(string memory) {\r\n        return _name;\r\n    }\r\n\r\n    function symbol() public view override returns(string memory){\r\n        return _symbol;\r\n    }\r\n\r\n    function decimals() public view virtual override returns(uint8) {\r\n        return 18;\r\n    }\r\n\r\n    //event Transfer(address indexed from, address indexed to, uint256 value);\r\n    //event Approval(address indexed owner, address indexed spender, uint256 value);\r\n\r\n    function totalSupply() public view override returns(uint256) {\r\n        return _totalSupply;\r\n    }\r\n\r\n    function balanceOf(address account) public view override returns(uint256){\r\n        return _balances[account];\r\n    }\r\n\r\n    function transfer(address to, uint256 amount) public override returns(bool){\r\n        address owner = msg.sender;\r\n        _transfer(owner, to, amount);\r\n        return true;\r\n    }\r\n\r\n    function allowance(address owner, address spender) public view override returns(uint256){\r\n        return _allowances[owner][spender];\r\n    }\r\n\r\n    function approve(address spender, uint256 amount) public override returns(bool){\r\n        address owner = msg.sender;\r\n        _approve(owner, spender, amount);\r\n        return true;\r\n    }\r\n    function transferFrom(address from, address to, uint256 amount) public override returns(bool){\r\n        address spender = msg.sender;\r\n        _spendAllowance(from, spender, amount);\r\n        _transfer(from, to, amount);\r\n        return true;\r\n    }\r\n\r\n    function _transfer(address from, address to, uint256 amount) internal {\r\n        require(from != address(0), \"ERC20: transfer from the zero address.\");\r\n        require(to != address(0), \"ERC20: transfer to the zero address.\");\r\n\r\n        uint256 fromBalance = _balances[from];\r\n        require(fromBalance >= amount, \"ERC20: tranfer amount exceeds balance.\");\r\n\r\n    unchecked {\r\n        _balances[from] = fromBalance - amount;\r\n    }\r\n\r\n        _balances[to] += amount;\r\n\r\n        emit Transfer(from, to, amount);\r\n    }\r\n\r\n    function _approve(address owner, address spender, uint256 amount) internal {\r\n        require(owner != address(0), \"ERC20: approve from the zero address.\");\r\n        require(spender != address(0), \"ERC20: approve to the zero address.\");\r\n\r\n        _allowances[owner][spender] = amount;\r\n        emit Approval(owner, spender, amount);\r\n    }\r\n\r\n    function _spendAllowance(address owner, address spender, uint256 amount) internal {\r\n\r\n        uint256 currentAllowance = allowance(owner, spender);\r\n\r\n        if(currentAllowance != type(uint256).max) {\r\n            require(currentAllowance >= amount, \"ERC20: insuficient allowance. \");\r\n        unchecked {\r\n            _approve(owner, spender, currentAllowance - amount);\r\n        }\r\n        }\r\n    }\r\n\r\n    function _mint(address account, uint256 amount) internal {\r\n        require(account != address(0), \"ERC20: mint to the zero address.\");\r\n        _totalSupply += amount;\r\n        _balances[account] += amount;\r\n\r\n        emit Transfer(address(0), account, amount);\r\n    }\r\n\r\n    function _burn(address account, uint256 amount) internal {\r\n        require(account != address(0), \"ERC20: burn from the zero address.\");\r\n        uint256 accountBalance = _balances[account];\r\n        require(accountBalance >= amount, \"ERC20: burn amount exceds balance\");\r\n        _balances[account] = accountBalance - amount;\r\n        _totalSupply -= amount;\r\n\r\n        emit Transfer(account, address(0), amount);\r\n    }\r\n\r\n    function increaseTotalSupply(address account, uint256 amount) public {\r\n        _mint(account, amount);\r\n    }\r\n\r\n}\r\n",
  "sourcePath": "C:\\Users\\hpzbook15\\Desktop\\blockchain\\blockchain-course-2022\\src\\ethereum\\contracts\\ERC20.sol",
  "compiler": {
    "name": "solc",
    "version": "0.8.14+commit.80d49f37.Emscripten.clang"
  },
  "schemaVersion": "3.4.7",
  "updatedAt": "2022-06-30T13:50:10.581Z",
  "devdoc": {
    "kind": "dev",
    "methods": {},
    "version": 1
  },
  "userdoc": {
    "kind": "user",
    "methods": {},
    "version": 1
  }
}